{
  "abi": [
    {
      "anonymous": false,
      "inputs": [
        {
          "indexed": true,
          "internalType": "address",
          "name": "maker",
          "type": "address"
        },
        {
          "indexed": true,
          "internalType": "address",
          "name": "taker",
          "type": "address"
        },
        {
          "indexed": true,
          "internalType": "uint256",
          "name": "time",
          "type": "uint256"
        }
      ],
      "name": "dealCompletion",
      "type": "event"
    },
    {
      "anonymous": false,
      "inputs": [
        {
          "indexed": true,
          "internalType": "address",
          "name": "token0",
          "type": "address"
        },
        {
          "indexed": true,
          "internalType": "address",
          "name": "token1",
          "type": "address"
        },
        {
          "indexed": true,
          "internalType": "address",
          "name": "owner",
          "type": "address"
        }
      ],
      "name": "dealCreation",
      "type": "event"
    },
    {
      "anonymous": false,
      "inputs": [
        {
          "indexed": true,
          "internalType": "uint256",
          "name": "index",
          "type": "uint256"
        }
      ],
      "name": "dealDeletion",
      "type": "event"
    },
    {
      "inputs": [
        {
          "internalType": "uint256",
          "name": "_index",
          "type": "uint256"
        },
        {
          "internalType": "uint256",
          "name": "amountToReceive",
          "type": "uint256"
        }
      ],
      "name": "acceptDeal",
      "outputs": [],
      "stateMutability": "nonpayable",
      "type": "function"
    },
    {
      "inputs": [
        {
          "internalType": "uint256",
          "name": "_index",
          "type": "uint256"
        }
      ],
      "name": "acceptFullDeal",
      "outputs": [],
      "stateMutability": "nonpayable",
      "type": "function"
    },
    {
      "inputs": [
        {
          "internalType": "address",
          "name": "_token0",
          "type": "address"
        },
        {
          "internalType": "address",
          "name": "_token1",
          "type": "address"
        },
        {
          "internalType": "uint256",
          "name": "_amount0",
          "type": "uint256"
        },
        {
          "internalType": "uint256",
          "name": "_amount1",
          "type": "uint256"
        }
      ],
      "name": "createDeal",
      "outputs": [],
      "stateMutability": "nonpayable",
      "type": "function"
    },
    {
      "inputs": [
        {
          "internalType": "uint256",
          "name": "",
          "type": "uint256"
        }
      ],
      "name": "deals",
      "outputs": [
        {
          "internalType": "contract IERC20",
          "name": "token0",
          "type": "address"
        },
        {
          "internalType": "contract IERC20",
          "name": "token1",
          "type": "address"
        },
        {
          "internalType": "uint256",
          "name": "amount0",
          "type": "uint256"
        },
        {
          "internalType": "uint256",
          "name": "amount1",
          "type": "uint256"
        },
        {
          "internalType": "uint256",
          "name": "amount0remaining",
          "type": "uint256"
        },
        {
          "internalType": "uint256",
          "name": "amount1remaining",
          "type": "uint256"
        },
        {
          "internalType": "uint256",
          "name": "time",
          "type": "uint256"
        },
        {
          "internalType": "address",
          "name": "owner",
          "type": "address"
        }
      ],
      "stateMutability": "view",
      "type": "function"
    },
    {
      "inputs": [],
      "name": "removeAllDeals",
      "outputs": [],
      "stateMutability": "nonpayable",
      "type": "function"
    },
    {
      "inputs": [
        {
          "internalType": "uint256",
          "name": "_index",
          "type": "uint256"
        }
      ],
      "name": "removeDeal",
      "outputs": [],
      "stateMutability": "nonpayable",
      "type": "function"
    }
  ],
  "bytecode": {
    "object": "0x608060405234801561001057600080fd5b50610c6f806100206000396000f3fe608060405234801561001057600080fd5b50600436106100625760003560e01c806303988f8414610067578063874b821c146100c8578063dcb04b6e146100dd578063e27b1e2c146100f0578063fd34b01914610103578063fe58265e1461010b575b600080fd5b61007a610075366004610ac4565b61011e565b604080516001600160a01b03998a16815297891660208901528701959095526060860193909352608085019190915260a084015260c083015290911660e08201526101000160405180910390f35b6100db6100d6366004610ac4565b610183565b005b6100db6100eb366004610af9565b61044d565b6100db6100fe366004610ac4565b6106be565b6100db6106f4565b6100db610119366004610b3b565b61075c565b6000818154811061012e57600080fd5b6000918252602090912060089091020180546001820154600283015460038401546004850154600586015460068701546007909701546001600160a01b03968716985094861696939592949193909290911688565b336001600160a01b0316600082815481106101a0576101a0610b5d565b60009182526020909120600760089092020101546001600160a01b03161461020e5760405162461bcd60e51b815260206004820152601a60248201527f4f4e4c59204f574e45522043414e2052454d4f5645204445414c000000000000604482015260640160405180910390fd5b600080828154811061022257610222610b5d565b6000918252602082206008909102015481546001600160a01b03909116925081908490811061025357610253610b5d565b60009182526020822060046008909202010154815490925061027790600190610b89565b8154811061028757610287610b5d565b9060005260206000209060080201600084815481106102a8576102a8610b5d565b600091825260208220835460089092020180546001600160a01b03199081166001600160a01b03938416178255600180860154908301805483169185169190911790556002808601549083015560038086015490830155600480860154908301556005808601549083015560068086015490830155600794850154949091018054909116939091169290921790915580548061034657610346610ba0565b6000828152602081206008600019939093019283020180546001600160a01b031990811682556001820180548216905560028201839055600382018390556004808301849055600583018490556006830193909355600790910180549091169055915560405163a9059cbb60e01b81523391810191909152602481018290526001600160a01b0383169063a9059cbb906044016020604051808303816000875af11580156103f8573d6000803e3d6000fd5b505050506040513d601f19601f8201168201806040525081019061041c9190610bb6565b5060405183907f3c65807ce448740b357ac4d1562bf41d2936a0cd82380edbd9bc2494299927ef90600090a2505050565b60408051610100810182526001600160a01b0386811680835286821660208401908152838501878152606085018781526080860189815260a087018981524260c089019081523360e08a01818152600080546001810182559080528b517f290decd9548b62a8d60345a988386fc84ba6bc95484008f6362f93160ef3e563600890920291820180546001600160a01b0319908116928e1692909217905598517f290decd9548b62a8d60345a988386fc84ba6bc95484008f6362f93160ef3e564820180548b16918d1691909117905596517f290decd9548b62a8d60345a988386fc84ba6bc95484008f6362f93160ef3e56588015594517f290decd9548b62a8d60345a988386fc84ba6bc95484008f6362f93160ef3e56687015592517f290decd9548b62a8d60345a988386fc84ba6bc95484008f6362f93160ef3e56786015590517f290decd9548b62a8d60345a988386fc84ba6bc95484008f6362f93160ef3e568850155517f290decd9548b62a8d60345a988386fc84ba6bc95484008f6362f93160ef3e56984015590517f290decd9548b62a8d60345a988386fc84ba6bc95484008f6362f93160ef3e56a90920180549093169190941617905592516323b872dd60e01b81526004810191909152306024820152604481018590529091906323b872dd906064016020604051808303816000875af1158015610657573d6000803e3d6000fd5b505050506040513d601f19601f8201168201806040525081019061067b9190610bb6565b5060405133906001600160a01b0386811691908816907fc1c982ed44ff36d741223efc11ba93aeaf7a5b15d8e018ac1b738ef354de85e990600090a45050505050565b60008082815481106106d2576106d2610b5d565b90600052602060002090600802016004015490506106f0828261075c565b5050565b60008054905b818110156106f057336001600160a01b03166000828154811061071f5761071f610b5d565b60009182526020909120600760089092020101546001600160a01b03160361074a5761074a81610183565b8061075481610bdf565b9150506106fa565b600080838154811061077057610770610b5d565b600091825260208083206040805161010081018252600890940290910180546001600160a01b039081168552600182015481169385019390935260028101549184019190915260038101546060840152600481015460808401819052600582015460a0850152600682015460c085015260079091015490911660e08301529092506107fc908490610b89565b101561080757600080fd5b818160a001516108179190610b89565b60000361095d576000805461082e90600190610b89565b8154811061083e5761083e610b5d565b90600052602060002090600802016000848154811061085f5761085f610b5d565b600091825260208220835460089092020180546001600160a01b03199081166001600160a01b0393841617825560018086015490830180548316918516919091179055600280860154908301556003808601549083015560048086015490830155600580860154908301556006808601549083015560079485015494909101805490911693909116929092179091558054806108fd576108fd610ba0565b60008281526020812060086000199093019283020180546001600160a01b03199081168255600182018054821690556002820183905560038201839055600482018390556005820183905560068201929092556007018054909116905590555b600081606001518260400151846109749190610bf8565b61097e9190610c17565b602083015160e08401516040516323b872dd60e01b81523360048201526001600160a01b0391821660248201526044810184905292935016906323b872dd906064016020604051808303816000875af11580156109df573d6000803e3d6000fd5b505050506040513d601f19601f82011682018060405250810190610a039190610bb6565b50815160405163a9059cbb60e01b8152336004820152602481018590526001600160a01b039091169063a9059cbb906044016020604051808303816000875af1158015610a54573d6000803e3d6000fd5b505050506040513d601f19601f82011682018060405250810190610a789190610bb6565b5042336001600160a01b03168360e001516001600160a01b03167f02f3ac13cffd64798b2ace9bb3e58d3ba0b4936a019a347257d2589160622b1a60405160405180910390a450505050565b600060208284031215610ad657600080fd5b5035919050565b80356001600160a01b0381168114610af457600080fd5b919050565b60008060008060808587031215610b0f57600080fd5b610b1885610add565b9350610b2660208601610add565b93969395505050506040820135916060013590565b60008060408385031215610b4e57600080fd5b50508035926020909101359150565b634e487b7160e01b600052603260045260246000fd5b634e487b7160e01b600052601160045260246000fd5b600082821015610b9b57610b9b610b73565b500390565b634e487b7160e01b600052603160045260246000fd5b600060208284031215610bc857600080fd5b81518015158114610bd857600080fd5b9392505050565b600060018201610bf157610bf1610b73565b5060010190565b6000816000190483118215151615610c1257610c12610b73565b500290565b600082610c3457634e487b7160e01b600052601260045260246000fd5b50049056fea26469706673582212202fe5459d3d33473466ebe6b985dcb4412be6c37d8e7adb0f09321bfbead0903064736f6c634300080e0033",
    "linkReferences": {}
  },
  "methodIdentifiers": {
    "acceptDeal(uint256,uint256)": "fe58265e",
    "acceptFullDeal(uint256)": "e27b1e2c",
    "createDeal(address,address,uint256,uint256)": "dcb04b6e",
    "deals(uint256)": "03988f84",
    "removeAllDeals()": "fd34b019",
    "removeDeal(uint256)": "874b821c"
  },
  "id": 10
}