{
  "abi": [
    {
      "anonymous": false,
      "inputs": [
        {
          "indexed": true,
          "internalType": "address",
          "name": "maker",
          "type": "address"
        },
        {
          "indexed": true,
          "internalType": "address",
          "name": "taker",
          "type": "address"
        },
        {
          "indexed": true,
          "internalType": "uint256",
          "name": "time",
          "type": "uint256"
        }
      ],
      "name": "dealCompletion",
      "type": "event"
    },
    {
      "anonymous": false,
      "inputs": [
        {
          "indexed": true,
          "internalType": "address",
          "name": "token0",
          "type": "address"
        },
        {
          "indexed": true,
          "internalType": "address",
          "name": "token1",
          "type": "address"
        },
        {
          "indexed": true,
          "internalType": "address",
          "name": "owner",
          "type": "address"
        }
      ],
      "name": "dealCreation",
      "type": "event"
    },
    {
      "anonymous": false,
      "inputs": [
        {
          "indexed": false,
          "internalType": "uint256",
          "name": "index",
          "type": "uint256"
        }
      ],
      "name": "dealDeletion",
      "type": "event"
    },
    {
      "inputs": [
        {
          "internalType": "uint256",
          "name": "_index",
          "type": "uint256"
        }
      ],
      "name": "acceptDeal",
      "outputs": [],
      "stateMutability": "nonpayable",
      "type": "function"
    },
    {
      "inputs": [
        {
          "internalType": "address",
          "name": "_token0",
          "type": "address"
        },
        {
          "internalType": "address",
          "name": "_token1",
          "type": "address"
        },
        {
          "internalType": "uint256",
          "name": "_amount0",
          "type": "uint256"
        },
        {
          "internalType": "uint256",
          "name": "_amount1",
          "type": "uint256"
        }
      ],
      "name": "createDeal",
      "outputs": [],
      "stateMutability": "nonpayable",
      "type": "function"
    },
    {
      "inputs": [
        {
          "internalType": "uint256",
          "name": "",
          "type": "uint256"
        }
      ],
      "name": "deals",
      "outputs": [
        {
          "internalType": "contract IERC20",
          "name": "token0",
          "type": "address"
        },
        {
          "internalType": "contract IERC20",
          "name": "token1",
          "type": "address"
        },
        {
          "internalType": "uint256",
          "name": "amount0",
          "type": "uint256"
        },
        {
          "internalType": "uint256",
          "name": "amount1",
          "type": "uint256"
        },
        {
          "internalType": "uint256",
          "name": "time",
          "type": "uint256"
        },
        {
          "internalType": "address",
          "name": "owner",
          "type": "address"
        }
      ],
      "stateMutability": "view",
      "type": "function"
    },
    {
      "inputs": [],
      "name": "removeAllDeals",
      "outputs": [],
      "stateMutability": "nonpayable",
      "type": "function"
    },
    {
      "inputs": [
        {
          "internalType": "uint256",
          "name": "_index",
          "type": "uint256"
        }
      ],
      "name": "removeDeal",
      "outputs": [],
      "stateMutability": "nonpayable",
      "type": "function"
    }
  ],
  "bytecode": {
    "object": "0x608060405234801561001057600080fd5b50610973806100206000396000f3fe608060405234801561001057600080fd5b50600436106100575760003560e01c806303988f841461005c5780637d41702e146100af578063874b821c146100c4578063dcb04b6e146100d7578063fd34b019146100ea575b600080fd5b61006f61006a36600461082b565b6100f2565b604080516001600160a01b03978816815295871660208701528501939093526060840191909152608083015290911660a082015260c00160405180910390f35b6100c26100bd36600461082b565b610147565b005b6100c26100d236600461082b565b6102fd565b6100c26100e5366004610860565b6105a8565b6100c26107bf565b6000818154811061010257600080fd5b60009182526020909120600690910201805460018201546002830154600384015460048501546005909501546001600160a01b03948516965092841694919390921686565b600080828154811061015b5761015b6108a2565b60009182526020918290206040805160c08101825260069390930290910180546001600160a01b03908116845260018201548116948401859052600282015484840152600382015460608501819052600480840154608087015260059093015490911660a0850181905292516323b872dd60e01b81523392810192909252602482019290925260448101919091529092506323b872dd906064016020604051808303816000875af1158015610214573d6000803e3d6000fd5b505050506040513d601f19601f8201168201806040525081019061023891906108b8565b508051604080830151905163a9059cbb60e01b815233600482015260248101919091526001600160a01b039091169063a9059cbb906044016020604051808303816000875af115801561028f573d6000803e3d6000fd5b505050506040513d601f19601f820116820180604052508101906102b391906108b8565b5042336001600160a01b03168260a001516001600160a01b03167f02f3ac13cffd64798b2ace9bb3e58d3ba0b4936a019a347257d2589160622b1a60405160405180910390a45050565b336001600160a01b03166000828154811061031a5761031a6108a2565b60009182526020909120600560069092020101546001600160a01b0316146103885760405162461bcd60e51b815260206004820152601a60248201527f4f4e4c59204f574e45522043414e2052454d4f5645204445414c000000000000604482015260640160405180910390fd5b60008054610398906001906108f7565b815481106103a8576103a86108a2565b9060005260206000209060060201600082815481106103c9576103c96108a2565b600091825260208220835460069092020180546001600160a01b03199081166001600160a01b039384161782556001808601549083018054831691851691909117905560028086015490830155600380860154908301556004808601549083015560059485015494909101805490911693909116929092179091558054806104535761045361090e565b60008281526020812060066000199093019283020180546001600160a01b031990811682556001820180548216905560028201839055600382018390556004820183905560059091018054909116905591558054829081106104b7576104b76108a2565b6000918252602082206006909102015481546001600160a01b039091169163a9059cbb91339190859081106104ee576104ee6108a2565b60009182526020909120600260069092020101546040516001600160e01b031960e085901b1681526001600160a01b03909216600483015260248201526044016020604051808303816000875af115801561054d573d6000803e3d6000fd5b505050506040513d601f19601f8201168201806040525081019061057191906108b8565b506040518181527f3c65807ce448740b357ac4d1562bf41d2936a0cd82380edbd9bc2494299927ef9060200160405180910390a150565b6040805160c0810182526001600160a01b03868116808352868216602084019081528385018781526060850187815242608087019081523360a088018181526000805460018101825590805289517f290decd9548b62a8d60345a988386fc84ba6bc95484008f6362f93160ef3e563600690920291820180546001600160a01b0319908116928c1692909217905596517f290decd9548b62a8d60345a988386fc84ba6bc95484008f6362f93160ef3e564820180548916918b1691909117905594517f290decd9548b62a8d60345a988386fc84ba6bc95484008f6362f93160ef3e56586015592517f290decd9548b62a8d60345a988386fc84ba6bc95484008f6362f93160ef3e56685015590517f290decd9548b62a8d60345a988386fc84ba6bc95484008f6362f93160ef3e56784015590517f290decd9548b62a8d60345a988386fc84ba6bc95484008f6362f93160ef3e56890920180549093169190941617905592516323b872dd60e01b81526004810191909152306024820152604481018590529091906323b872dd906064016020604051808303816000875af1158015610758573d6000803e3d6000fd5b505050506040513d601f19601f8201168201806040525081019061077c91906108b8565b5060405133906001600160a01b0386811691908816907fc1c982ed44ff36d741223efc11ba93aeaf7a5b15d8e018ac1b738ef354de85e990600090a45050505050565b60008054905b8181101561082757336001600160a01b0316600082815481106107ea576107ea6108a2565b60009182526020909120600560069092020101546001600160a01b03160361081557610815816102fd565b8061081f81610924565b9150506107c5565b5050565b60006020828403121561083d57600080fd5b5035919050565b80356001600160a01b038116811461085b57600080fd5b919050565b6000806000806080858703121561087657600080fd5b61087f85610844565b935061088d60208601610844565b93969395505050506040820135916060013590565b634e487b7160e01b600052603260045260246000fd5b6000602082840312156108ca57600080fd5b815180151581146108da57600080fd5b9392505050565b634e487b7160e01b600052601160045260246000fd5b600082821015610909576109096108e1565b500390565b634e487b7160e01b600052603160045260246000fd5b600060018201610936576109366108e1565b506001019056fea26469706673582212202c62e09ca326f5ba5fc241fef4d6183d4c85bee5871185cb53c521df33522adb64736f6c634300080e0033",
    "linkReferences": {}
  },
  "methodIdentifiers": {
    "acceptDeal(uint256)": "7d41702e",
    "createDeal(address,address,uint256,uint256)": "dcb04b6e",
    "deals(uint256)": "03988f84",
    "removeAllDeals()": "fd34b019",
    "removeDeal(uint256)": "874b821c"
  },
  "id": 8
}